{
  "contractName": "DAPP",
  "abi": [
    {
      "inputs": [],
      "payable": false,
      "stateMutability": "nonpayable",
      "type": "constructor"
    },
    {
      "anonymous": false,
      "inputs": [
        {
          "indexed": false,
          "name": "idDron_",
          "type": "uint256"
        },
        {
          "indexed": false,
          "name": "altitudeMax_",
          "type": "uint256"
        },
        {
          "indexed": false,
          "name": "altitudeMin_",
          "type": "uint256"
        },
        {
          "indexed": false,
          "name": "costValue_",
          "type": "uint256"
        }
      ],
      "name": "eventSetDronOk",
      "type": "event"
    },
    {
      "anonymous": false,
      "inputs": [
        {
          "indexed": false,
          "name": "idLand_",
          "type": "uint256"
        },
        {
          "indexed": false,
          "name": "altitudeMax_",
          "type": "uint256"
        },
        {
          "indexed": false,
          "name": "altitudeMin_",
          "type": "uint256"
        },
        {
          "indexed": false,
          "name": "name_",
          "type": "string"
        }
      ],
      "name": "eventSetLandOk",
      "type": "event"
    },
    {
      "anonymous": false,
      "inputs": [
        {
          "indexed": false,
          "name": "_idDron",
          "type": "uint256"
        },
        {
          "indexed": false,
          "name": "_idLand",
          "type": "uint256"
        },
        {
          "indexed": false,
          "name": "_idCostumer",
          "type": "address"
        },
        {
          "indexed": false,
          "name": "_value",
          "type": "uint256"
        },
        {
          "indexed": false,
          "name": "purchase_",
          "type": "bytes8"
        }
      ],
      "name": "eventSetPaidOk",
      "type": "event"
    },
    {
      "constant": true,
      "inputs": [],
      "name": "getCountDron",
      "outputs": [
        {
          "name": "",
          "type": "uint256"
        }
      ],
      "payable": false,
      "stateMutability": "view",
      "type": "function"
    },
    {
      "constant": false,
      "inputs": [],
      "name": "setCountDron",
      "outputs": [
        {
          "name": "",
          "type": "bool"
        }
      ],
      "payable": false,
      "stateMutability": "nonpayable",
      "type": "function"
    },
    {
      "constant": false,
      "inputs": [
        {
          "name": "company_",
          "type": "address"
        },
        {
          "name": "idDron_",
          "type": "uint256"
        },
        {
          "name": "altitudeMax_",
          "type": "uint256"
        },
        {
          "name": "altitudeMin_",
          "type": "uint256"
        },
        {
          "name": "costValue_",
          "type": "uint256"
        },
        {
          "name": "pesticide_",
          "type": "string"
        },
        {
          "name": "name_",
          "type": "string"
        }
      ],
      "name": "setDron",
      "outputs": [
        {
          "name": "",
          "type": "bool"
        }
      ],
      "payable": false,
      "stateMutability": "nonpayable",
      "type": "function"
    },
    {
      "constant": true,
      "inputs": [
        {
          "name": "idDron_",
          "type": "uint256"
        }
      ],
      "name": "getDron",
      "outputs": [
        {
          "name": "company_",
          "type": "address"
        },
        {
          "name": "idDron",
          "type": "uint256"
        },
        {
          "name": "altitudeMax_",
          "type": "uint256"
        },
        {
          "name": "altitudeMin_",
          "type": "uint256"
        },
        {
          "name": "costValue_",
          "type": "uint256"
        },
        {
          "name": "pesticide_",
          "type": "string"
        },
        {
          "name": "name_",
          "type": "string"
        },
        {
          "name": "isActive_",
          "type": "bool"
        }
      ],
      "payable": false,
      "stateMutability": "view",
      "type": "function"
    },
    {
      "constant": true,
      "inputs": [],
      "name": "getCountLand",
      "outputs": [
        {
          "name": "",
          "type": "uint256"
        }
      ],
      "payable": false,
      "stateMutability": "view",
      "type": "function"
    },
    {
      "constant": false,
      "inputs": [],
      "name": "setCountLand",
      "outputs": [
        {
          "name": "",
          "type": "bool"
        }
      ],
      "payable": false,
      "stateMutability": "nonpayable",
      "type": "function"
    },
    {
      "constant": false,
      "inputs": [
        {
          "name": "idLand_",
          "type": "uint256"
        },
        {
          "name": "altitudeMax_",
          "type": "uint256"
        },
        {
          "name": "altitudeMin_",
          "type": "uint256"
        },
        {
          "name": "customer_",
          "type": "address"
        },
        {
          "name": "pesticide_",
          "type": "string"
        },
        {
          "name": "name_",
          "type": "string"
        }
      ],
      "name": "setLand",
      "outputs": [
        {
          "name": "",
          "type": "bool"
        }
      ],
      "payable": false,
      "stateMutability": "nonpayable",
      "type": "function"
    },
    {
      "constant": true,
      "inputs": [
        {
          "name": "idLand_",
          "type": "uint256"
        }
      ],
      "name": "getIdLand",
      "outputs": [
        {
          "name": "pesticide_",
          "type": "string"
        },
        {
          "name": "altitudeMax_",
          "type": "uint256"
        },
        {
          "name": "altitudeMin_",
          "type": "uint256"
        }
      ],
      "payable": false,
      "stateMutability": "view",
      "type": "function"
    },
    {
      "constant": true,
      "inputs": [
        {
          "name": "idLand_",
          "type": "uint256"
        }
      ],
      "name": "getLand",
      "outputs": [
        {
          "name": "customer_",
          "type": "address"
        },
        {
          "name": "idLand",
          "type": "uint256"
        },
        {
          "name": "altitudeMax_",
          "type": "uint256"
        },
        {
          "name": "altitudeMin_",
          "type": "uint256"
        },
        {
          "name": "pesticide_",
          "type": "string"
        },
        {
          "name": "name_",
          "type": "string"
        }
      ],
      "payable": false,
      "stateMutability": "view",
      "type": "function"
    },
    {
      "constant": false,
      "inputs": [
        {
          "name": "purchase_",
          "type": "bytes8"
        },
        {
          "name": "idDron_",
          "type": "uint256"
        },
        {
          "name": "idLand_",
          "type": "uint256"
        },
        {
          "name": "idCostumer_",
          "type": "address"
        },
        {
          "name": "value_",
          "type": "uint256"
        }
      ],
      "name": "setPay",
      "outputs": [
        {
          "name": "",
          "type": "bool"
        }
      ],
      "payable": false,
      "stateMutability": "nonpayable",
      "type": "function"
    },
    {
      "constant": true,
      "inputs": [
        {
          "name": "max_",
          "type": "uint256"
        },
        {
          "name": "min_",
          "type": "uint256"
        },
        {
          "name": "pesticide_",
          "type": "string"
        }
      ],
      "name": "getDronAvailable",
      "outputs": [
        {
          "name": "IDDron_",
          "type": "uint256"
        },
        {
          "name": "altitudeMax_",
          "type": "uint256"
        },
        {
          "name": "altitudeMin_",
          "type": "uint256"
        },
        {
          "name": "costValue_",
          "type": "uint256"
        }
      ],
      "payable": false,
      "stateMutability": "view",
      "type": "function"
    }
  ],
  "bytecode": "0x608060405234801561001057600080fd5b5060018081905550600160008190555033600260006101000a81548173ffffffffffffffffffffffffffffffffffffffff021916908373ffffffffffffffffffffffffffffffffffffffff160217905550611e3e806100706000396000f3fe6080604052600436106100af576000357c0100000000000000000000000000000000000000000000000000000000900463ffffffff16806302ed7fe2146100b45780631dcbe5ee146100e357806324ef52da146102a25780634eca4671146102cd57806353a942e5146102fc5780635a3d1a181461032757806390bd15c6146104a1578063a23e2085146105a6578063e075279914610668578063e42d22eb1461081d578063f02dd53f146108c9575b600080fd5b3480156100c057600080fd5b506100c9610a31565b604051808215151515815260200191505060405180910390f35b3480156100ef57600080fd5b50610288600480360360e081101561010657600080fd5b81019080803573ffffffffffffffffffffffffffffffffffffffff169060200190929190803590602001909291908035906020019092919080359060200190929190803590602001909291908035906020019064010000000081111561016b57600080fd5b82018360208201111561017d57600080fd5b8035906020019184600183028401116401000000008311171561019f57600080fd5b91908080601f016020809104026020016040519081016040528093929190818152602001838380828437600081840152601f19601f8201169050808301925050505050505091929192908035906020019064010000000081111561020257600080fd5b82018360208201111561021457600080fd5b8035906020019184600183028401116401000000008311171561023657600080fd5b91908080601f016020809104026020016040519081016040528093929190818152602001838380828437600081840152601f19601f820116905080830192505050505050509192919290505050610b5c565b604051808215151515815260200191505060405180910390f35b3480156102ae57600080fd5b506102b7610c8e565b6040518082815260200191505060405180910390f35b3480156102d957600080fd5b506102e2610c98565b604051808215151515815260200191505060405180910390f35b34801561030857600080fd5b50610311610dc4565b6040518082815260200191505060405180910390f35b34801561033357600080fd5b506103606004803603602081101561034a57600080fd5b8101908080359060200190929190505050610dcd565b604051808973ffffffffffffffffffffffffffffffffffffffff1673ffffffffffffffffffffffffffffffffffffffff168152602001888152602001878152602001868152602001858152602001806020018060200184151515158152602001838103835286818151815260200191508051906020019080838360005b838110156103f85780820151818401526020810190506103dd565b50505050905090810190601f1680156104255780820380516001836020036101000a031916815260200191505b50838103825285818151815260200191508051906020019080838360005b8381101561045e578082015181840152602081019050610443565b50505050905090810190601f16801561048b5780820380516001836020036101000a031916815260200191505b509a505050505050505050505060405180910390f35b3480156104ad57600080fd5b5061057b600480360360608110156104c457600080fd5b810190808035906020019092919080359060200190929190803590602001906401000000008111156104f557600080fd5b82018360208201111561050757600080fd5b8035906020019184600183028401116401000000008311171561052957600080fd5b91908080601f016020809104026020016040519081016040528093929190818152602001838380828437600081840152601f19601f820116905080830192505050505050509192919290505050610ff4565b6040518085815260200184815260200183815260200182815260200194505050505060405180910390f35b3480156105b257600080fd5b506105df600480360360208110156105c957600080fd5b810190808035906020019092919050505061105d565b6040518080602001848152602001838152602001828103825285818151815260200191508051906020019080838360005b8381101561062b578082015181840152602081019050610610565b50505050905090810190601f1680156106585780820380516001836020036101000a031916815260200191505b5094505050505060405180910390f35b34801561067457600080fd5b50610803600480360360c081101561068b57600080fd5b81019080803590602001909291908035906020019092919080359060200190929190803573ffffffffffffffffffffffffffffffffffffffff169060200190929190803590602001906401000000008111156106e657600080fd5b8201836020820111156106f857600080fd5b8035906020019184600183028401116401000000008311171561071a57600080fd5b91908080601f016020809104026020016040519081016040528093929190818152602001838380828437600081840152601f19601f8201169050808301925050505050505091929192908035906020019064010000000081111561077d57600080fd5b82018360208201111561078f57600080fd5b803590602001918460018302840111640100000000831117156107b157600080fd5b91908080601f016020809104026020016040519081016040528093929190818152602001838380828437600081840152601f19601f82011690508083019250505050505050919291929050505061114c565b604051808215151515815260200191505060405180910390f35b34801561082957600080fd5b506108af600480360360a081101561084057600080fd5b81019080803577ffffffffffffffffffffffffffffffffffffffffffffffff191690602001909291908035906020019092919080359060200190929190803573ffffffffffffffffffffffffffffffffffffffff1690602001909291908035906020019092919050505061127c565b604051808215151515815260200191505060405180910390f35b3480156108d557600080fd5b50610902600480360360208110156108ec57600080fd5b81019080803590602001909291905050506113aa565b604051808773ffffffffffffffffffffffffffffffffffffffff1673ffffffffffffffffffffffffffffffffffffffff1681526020018681526020018581526020018481526020018060200180602001838103835285818151815260200191508051906020019080838360005b8381101561098a57808201518184015260208101905061096f565b50505050905090810190601f1680156109b75780820380516001836020036101000a031916815260200191505b50838103825284818151815260200191508051906020019080838360005b838110156109f05780820151818401526020810190506109d5565b50505050905090810190601f168015610a1d5780820380516001836020036101000a031916815260200191505b509850505050505050505060405180910390f35b6000600260009054906101000a900473ffffffffffffffffffffffffffffffffffffffff1673ffffffffffffffffffffffffffffffffffffffff163373ffffffffffffffffffffffffffffffffffffffff16141515610b44576040517f08c379a00000000000000000000000000000000000000000000000000000000081526004018080602001828103825260438152602001807f536f6c6f206c6120656d70726573612070726f7069657461726961206465206c81526020017f6f732064726f6e657320707565646520686163657220657374612061636369c381526020017fb36e2e000000000000000000000000000000000000000000000000000000000081525060600191505060405180910390fd5b60008081548092919060010191905055506001905090565b6000600260009054906101000a900473ffffffffffffffffffffffffffffffffffffffff1673ffffffffffffffffffffffffffffffffffffffff163373ffffffffffffffffffffffffffffffffffffffff16141515610c6f576040517f08c379a00000000000000000000000000000000000000000000000000000000081526004018080602001828103825260438152602001807f536f6c6f206c6120656d70726573612070726f7069657461726961206465206c81526020017f6f732064726f6e657320707565646520686163657220657374612061636369c381526020017fb36e2e000000000000000000000000000000000000000000000000000000000081525060600191505060405180910390fd5b610c7e8888888888888861158c565b5060019050979650505050505050565b6000600154905090565b6000600260009054906101000a900473ffffffffffffffffffffffffffffffffffffffff1673ffffffffffffffffffffffffffffffffffffffff163373ffffffffffffffffffffffffffffffffffffffff16141515610dab576040517f08c379a00000000000000000000000000000000000000000000000000000000081526004018080602001828103825260438152602001807f536f6c6f206c6120656d70726573612070726f7069657461726961206465206c81526020017f6f732064726f6e657320707565646520686163657220657374612061636369c381526020017fb36e2e000000000000000000000000000000000000000000000000000000000081525060600191505060405180910390fd5b6001600081548092919060010191905055506001905090565b60008054905090565b60008060008060006060806000600360008a815260200190815260200160002060000160009054906101000a900473ffffffffffffffffffffffffffffffffffffffff169750600360008a8152602001908152602001600020600101549550600360008a8152602001908152602001600020600201549450600360008a8152602001908152602001600020600301549350600360008a81526020019081526020016000206004018054600181600116156101000203166002900480601f016020809104026020016040519081016040528092919081815260200182805460018160011615610100020316600290048015610f085780601f10610edd57610100808354040283529160200191610f08565b820191906000526020600020905b815481529060010190602001808311610eeb57829003601f168201915b50505050509250600360008a81526020019081526020016000206005018054600181600116156101000203166002900480601f016020809104026020016040519081016040528092919081815260200182805460018160011615610100020316600290048015610fb95780601f10610f8e57610100808354040283529160200191610fb9565b820191906000526020600020905b815481529060010190602001808311610f9c57829003601f168201915b50505050509150600360008a815260200190815260200160002060060160009054906101000a900460ff169050889650919395975091939597565b6000806000806110076003888888611717565b935060036000858152602001908152602001600020600101549250600360008581526020019081526020016000206002015491506003600085815260200190815260200160002060030154905093509350935093565b60606000806004600085815260200190815260200160002060000154915060046000858152602001908152602001600020600101549050600460008581526020019081526020016000206004018054600181600116156101000203166002900480601f01602080910402602001604051908101604052809291908181526020018280546001816001161561010002031660029004801561113e5780601f106111135761010080835404028352916020019161113e565b820191906000526020600020905b81548152906001019060200180831161112157829003601f168201915b505050505092509193909250565b6000600260009054906101000a900473ffffffffffffffffffffffffffffffffffffffff1673ffffffffffffffffffffffffffffffffffffffff163373ffffffffffffffffffffffffffffffffffffffff1614151561125f576040517f08c379a00000000000000000000000000000000000000000000000000000000081526004018080602001828103825260438152602001807f536f6c6f206c6120656d70726573612070726f7069657461726961206465206c81526020017f6f732064726f6e657320707565646520686163657220657374612061636369c381526020017fb36e2e000000000000000000000000000000000000000000000000000000000081525060600191505060405180910390fd5b61126d878787878787611842565b50600190509695505050505050565b6000600260009054906101000a900473ffffffffffffffffffffffffffffffffffffffff1673ffffffffffffffffffffffffffffffffffffffff163373ffffffffffffffffffffffffffffffffffffffff1614151561138f576040517f08c379a00000000000000000000000000000000000000000000000000000000081526004018080602001828103825260438152602001807f536f6c6f206c6120656d70726573612070726f7069657461726961206465206c81526020017f6f732064726f6e657320707565646520686163657220657374612061636369c381526020017fb36e2e000000000000000000000000000000000000000000000000000000000081525060600191505060405180910390fd5b61139c86868686866119e7565b506001905095945050505050565b6000806000806060806004600088815260200190815260200160002060030160009054906101000a900473ffffffffffffffffffffffffffffffffffffffff1695506004600088815260200190815260200160002060000154935060046000888152602001908152602001600020600101549250600460008881526020019081526020016000206004018054600181600116156101000203166002900480601f0160208091040260200160405190810160405280929190818152602001828054600181600116156101000203166002900480156114c85780601f1061149d576101008083540402835291602001916114c8565b820191906000526020600020905b8154815290600101906020018083116114ab57829003601f168201915b50505050509150600460008881526020019081526020016000206002018054600181600116156101000203166002900480601f0160208091040260200160405190810160405280929190818152602001828054600181600116156101000203166002900480156115795780601f1061154e57610100808354040283529160200191611579565b820191906000526020600020905b81548152906001019060200180831161155c57829003601f168201915b5050505050905086945091939550919395565b6000876003600089815260200190815260200160002060000160006101000a81548173ffffffffffffffffffffffffffffffffffffffff021916908373ffffffffffffffffffffffffffffffffffffffff1602179055508560036000898152602001908152602001600020600101819055508460036000898152602001908152602001600020600201819055508360036000898152602001908152602001600020600301819055508260036000898152602001908152602001600020600401908051906020019061165e929190611d6d565b5081600360008981526020019081526020016000206005019080519060200190611689929190611d6d565b5060016003600089815260200190815260200160002060060160006101000a81548160ff0219169083151502179055507f71adb46fff99f646b74b70908052df856244bee719fcec7df82c0f7a78e0b4a8878787876040518085815260200184815260200183815260200182815260200194505050505060405180910390a160019050979650505050505050565b600080905060008090505b606481101561183957828051906020012086600083815260200190815260200160002060040160405180828054600181600116156101000203166002900480156117a35780601f106117815761010080835404028352918201916117a3565b820191906000526020600020905b81548152906001019060200180831161178f575b50509150506040518091039020141561182c576001151586600083815260200190815260200160002060060160009054906101000a900460ff161515141561182b57856000828152602001908152602001600020600101548511151561182a57856000828152602001908152602001600020600201548410151561182957809150611839565b5b5b5b8080600101915050611722565b50949350505050565b6000856004600089815260200190815260200160002060000181905550846004600089815260200190815260200160002060010181905550836004600089815260200190815260200160002060030160006101000a81548173ffffffffffffffffffffffffffffffffffffffff021916908373ffffffffffffffffffffffffffffffffffffffff160217905550816004600089815260200190815260200160002060020190805190602001906118f9929190611d6d565b5082600460008981526020019081526020016000206004019080519060200190611924929190611d6d565b507f42c55c583ff4c50a9740ddcc02d9f90d7e5504978624864165584f20084627b6878787856040518085815260200184815260200183815260200180602001828103825283818151815260200191508051906020019080838360005b8381101561199c578082015181840152602081019050611981565b50505050905090810190601f1680156119c95780820380516001836020036101000a031916815260200191505b509550505050505060405180910390a1600190509695505050505050565b6000600260009054906101000a900473ffffffffffffffffffffffffffffffffffffffff1673ffffffffffffffffffffffffffffffffffffffff163373ffffffffffffffffffffffffffffffffffffffff16141515611afa576040517f08c379a00000000000000000000000000000000000000000000000000000000081526004018080602001828103825260438152602001807f536f6c6f206c6120656d70726573612070726f7069657461726961206465206c81526020017f6f732064726f6e657320707565646520686163657220657374612061636369c381526020017fb36e2e000000000000000000000000000000000000000000000000000000000081525060600191505060405180910390fd5b84600560008877ffffffffffffffffffffffffffffffffffffffffffffffff191677ffffffffffffffffffffffffffffffffffffffffffffffff191681526020019081526020016000206000018190555083600560008877ffffffffffffffffffffffffffffffffffffffffffffffff191677ffffffffffffffffffffffffffffffffffffffffffffffff191681526020019081526020016000206001018190555082600560008877ffffffffffffffffffffffffffffffffffffffffffffffff191677ffffffffffffffffffffffffffffffffffffffffffffffff1916815260200190815260200160002060020160006101000a81548173ffffffffffffffffffffffffffffffffffffffff021916908373ffffffffffffffffffffffffffffffffffffffff16021790555081600560008877ffffffffffffffffffffffffffffffffffffffffffffffff191677ffffffffffffffffffffffffffffffffffffffffffffffff191681526020019081526020016000206003018190555060006003600087815260200190815260200160002060060160006101000a81548160ff0219169083151502179055507fd15c862b7f89c7645a41a7c634771f9423ac43e1b8be33e335344de54201ef08858585858a604051808681526020018581526020018473ffffffffffffffffffffffffffffffffffffffff1673ffffffffffffffffffffffffffffffffffffffff1681526020018381526020018277ffffffffffffffffffffffffffffffffffffffffffffffff191677ffffffffffffffffffffffffffffffffffffffffffffffff191681526020019550505050505060405180910390a16001905095945050505050565b828054600181600116156101000203166002900490600052602060002090601f016020900481019282601f10611dae57805160ff1916838001178555611ddc565b82800160010185558215611ddc579182015b82811115611ddb578251825591602001919060010190611dc0565b5b509050611de99190611ded565b5090565b611e0f91905b80821115611e0b576000816000905550600101611df3565b5090565b9056fea165627a7a72305820d0864d257a639cc034d2ed22ff968eac213a2e52c223b2ce0256e2afebe853350029",
  "source": "//Sistema de fumigacin parcelas con drones\r\n\r\npragma solidity ^0.5.0;\r\n\r\nimport \"./IDAPP.sol\";\r\nimport \"./LibraryDAPP.sol\";\r\n\r\ncontract DAPP is IDAPP {\r\n    \r\n    /*\r\n     * Las caractersticas propias de los drones\r\n\t * Un identificador nico y ascendente, comenzando en 1 y que no puede repetirse\r\n     */\r\n\t//El contrato DAPP implementa un mapping (bytes32 => Dron) drones para almacenar la struct\r\n\tuint256 private _idLand;\r\n\tuint256 private _idDron;\r\n\taddress private _owner;\r\n\t\r\n\tmapping(uint256 => Dron) private drones;\r\n\r\n\tconstructor() public{\r\n\t\t_idDron=1;\r\n\t\t_idLand=1;\r\n\t\t_owner=msg.sender;\r\n\t}\r\n\t\r\n\tmodifier onlyOwner() {\r\n\t\trequire( msg.sender == _owner, \"Solo la empresa propietaria de los drones puede hacer esta accin.\");\r\n\t\t_;\r\n\t}\r\n\r\n\t// Retorna el ultimo IDdron\r\n    function getCountDron() external view returns (uint256) {\r\n        return _idDron;\r\n\t}\r\n\r\n\t// Incrementa IDdron\r\n\tfunction setCountDron() external onlyOwner returns (bool) {\r\n\t\t_idDron ++;\r\n\t\treturn true;\r\n\t}\r\n\r\n\t// Dron set!\r\n\tfunction setDron(address company_, uint256 idDron_, uint256 altitudeMax_, uint256 altitudeMin_, uint256 costValue_, string memory pesticide_, string memory name_) public onlyOwner returns  (bool) {\r\n\t\t_setDron(company_, idDron_, altitudeMax_, altitudeMin_, costValue_, pesticide_, name_);\r\n\t\treturn true;\r\n\t}\r\n\tfunction _setDron(address company_, uint256 idDron_, uint256 altitudeMax_, uint256 altitudeMin_, uint256 costValue_, string memory pesticide_, string memory name_) internal  returns  (bool) {\r\n\t\tdrones[idDron_]._company = company_;\r\n\t\tdrones[idDron_]._altitudeMax = altitudeMax_;\r\n\t\tdrones[idDron_]._altitudeMin = altitudeMin_;\r\n\t\tdrones[idDron_]._costValue = costValue_;\r\n\t\tdrones[idDron_]._pesticide = pesticide_;\r\n\t\tdrones[idDron_]._name = name_;\r\n\t\tdrones[idDron_]._isActive = true;\r\n\t\temit eventSetDronOk(idDron_, altitudeMax_, altitudeMin_,  costValue_);\r\n\t\treturn true;\r\n\t}\r\n\t\r\n\tfunction getDron(uint256 idDron_) external view returns (address company_,  uint256 idDron, uint256 altitudeMax_, uint256 altitudeMin_, uint256 costValue_ ,string memory pesticide_, string memory name_, bool isActive_){\r\n\t    company_ = drones[idDron_]._company ;\r\n\t\taltitudeMax_ = drones[idDron_]._altitudeMax ;\r\n\t\taltitudeMin_ = drones[idDron_]._altitudeMin ;\r\n\t\tcostValue_ = drones[idDron_]._costValue;\r\n\t\tpesticide_ = drones[idDron_]._pesticide ;\r\n\t\tname_ = drones[idDron_]._name ;\r\n\t\tisActive_ = drones[idDron_]._isActive;\r\n\t\tidDron = idDron_;\r\n\t}\r\n\r\n\t/*\r\n     * Las caractersticas propias de las parcelas\r\n\t * Un identificador nico y ascendente, que comienza en 1 y que no puede repetirse\r\n     */\r\n\t//El contrato DAPP implementa un mapping (bytes32 => Land) drones para almacenar la struct\r\n\tmapping(uint256 => Land) private lands;\r\n\r\n\t// Retorna el ultimo ultimo IDParcela\r\n    function getCountLand() external view returns (uint256) {\r\n\t\treturn _idLand;\r\n\t}\r\n\r\n\t// Sumamos uno al contador de parcelas\r\n\tfunction setCountLand() external onlyOwner returns (bool) {\r\n\t\t_idLand ++;\r\n\t\treturn true;\r\n\t}\r\n\r\n\t// Land set!!\r\n\tfunction setLand(uint256 idLand_, uint256 altitudeMax_, uint256 altitudeMin_, address customer_, string memory pesticide_, string memory name_) public onlyOwner returns (bool) {\r\n\t_setLand(idLand_, altitudeMax_, altitudeMin_, customer_, pesticide_, name_);\r\n\treturn true;\r\n\t}\r\n\t\r\n\tfunction _setLand(uint256 idLand_, uint256 altitudeMax_, uint256 altitudeMin_, address customer_, string memory pesticide_, string memory name_) internal  returns (bool) {\r\n\t\tlands[idLand_]._altitudeMax = altitudeMax_;\r\n\t\tlands[idLand_]._altitudeMin = altitudeMin_;\r\n\t\tlands[idLand_]._customer = customer_;\r\n\t\tlands[idLand_]._name = name_;\r\n\t\tlands[idLand_]._pesticide = pesticide_;\r\n\t\temit eventSetLandOk(idLand_, altitudeMax_, altitudeMin_,name_);\r\n\t\treturn true;\r\n\t}\r\n\t\r\n\t\tfunction getIdLand(uint256 idLand_) external view returns (string memory pesticide_, uint256 altitudeMax_, uint256 altitudeMin_) {\r\n\t\taltitudeMax_ = lands[idLand_]._altitudeMax ;\r\n\t\taltitudeMin_ = lands[idLand_]._altitudeMin;\r\n\t\tpesticide_ = lands[idLand_]._pesticide ;\r\n\t\t//return ;\r\n\t}\r\n\t\r\n\tfunction getLand(uint256 idLand_) external view returns (address customer_, uint256 idLand,  uint256 altitudeMax_, uint256 altitudeMin_, string memory pesticide_, string memory name_){\r\n\t    customer_ = lands[idLand_]._customer ;\r\n\t\taltitudeMax_ = lands[idLand_]._altitudeMax ;\r\n\t\taltitudeMin_ = lands[idLand_]._altitudeMin ;\r\n\t\tpesticide_ = lands[idLand_]._pesticide ;\r\n\t\tname_ = lands[idLand_]._name ;\r\n\t\tidLand = idLand_;\r\n\t}\r\n\r\n\r\n\t//El contrato DAPP implementa un mapping (bytes32 => Paid) paids para almacenar la struct\r\n\t//El grupo de funciones a continucion describen la operacion pago del servicio de fumigacion\r\n\tmapping (bytes8 => Paid) private payments;\r\n\t\r\n\tfunction setPay(bytes8 purchase_, uint256 idDron_, uint256 idLand_, address idCostumer_, uint256 value_) public onlyOwner returns(bool) {\r\n\t\t_setPay(purchase_, idDron_, idLand_, idCostumer_, value_);\r\n\t\treturn true;\r\n\t}\r\n\t\r\n   \tfunction _setPay(bytes8 purchase_, uint256 idDron_, uint256 idLand_, address idCostumer_, uint256 value_) internal onlyOwner returns(bool) {\r\n\t\t//adiciona un require que valide el by_ no exista en payments\r\n\t\tpayments[purchase_]._idDron = idDron_;\r\n\t\tpayments[purchase_]._idLand = idLand_;\r\n\t\tpayments[purchase_]._idCostumer = idCostumer_;\r\n\t\tpayments[purchase_]._value = value_;\r\n\t\t\r\n\t\t//inactivo el dron porque esta en ejecutando el servicio de fumigacion\r\n\t\tdrones[idDron_]._isActive = false;\r\n\r\n\t\temit eventSetPaidOk( idDron_,  idLand_,  idCostumer_,  value_, purchase_);\r\n\t\treturn true;\r\n\t}\r\n\r\n\tfunction getDronAvailable(uint256 max_, uint256 min_, string memory  pesticide_) public  view returns (uint256 IDDron_,uint256 altitudeMax_,uint256 altitudeMin_, uint256 costValue_){\r\n\t   IDDron_= LibraryDAPP.indexOf(drones,max_, min_, pesticide_);\r\n\t   altitudeMax_ = drones[IDDron_]._altitudeMax ;\r\n\t   altitudeMin_ = drones[IDDron_]._altitudeMin ;\r\n\t   costValue_ = drones[IDDron_]._costValue ;\r\n\t}\r\n\t\r\n}",
  "sourcePath": "C:/Users/Admin/Documents/Tech/UNIR/Blockchain/TFE/TEST/contracts/DAPP.sol",
  "compiler": {
    "name": "solc",
    "version": "0.5.0+commit.1d4f565a.Emscripten.clang"
  },
  "schemaVersion": "3.3.4",
  "updatedAt": "2021-03-20T08:40:09.427Z",
  "devdoc": {
    "methods": {}
  },
  "userdoc": {
    "methods": {}
  }
}