{
  "contractName": "ERC721",
  "abi": [
    {
      "inputs": [
        {
          "name": "name_",
          "type": "string"
        },
        {
          "name": "symbol_",
          "type": "string"
        },
        {
          "name": "baseURI_",
          "type": "string"
        }
      ],
      "payable": false,
      "stateMutability": "nonpayable",
      "type": "constructor"
    },
    {
      "anonymous": false,
      "inputs": [
        {
          "indexed": true,
          "name": "from",
          "type": "address"
        },
        {
          "indexed": true,
          "name": "to",
          "type": "address"
        },
        {
          "indexed": true,
          "name": "tokenId",
          "type": "uint256"
        }
      ],
      "name": "Transfer",
      "type": "event"
    },
    {
      "anonymous": false,
      "inputs": [
        {
          "indexed": true,
          "name": "owner",
          "type": "address"
        },
        {
          "indexed": true,
          "name": "approved",
          "type": "address"
        },
        {
          "indexed": true,
          "name": "tokenId",
          "type": "uint256"
        }
      ],
      "name": "Approval",
      "type": "event"
    },
    {
      "anonymous": false,
      "inputs": [
        {
          "indexed": true,
          "name": "owner",
          "type": "address"
        },
        {
          "indexed": true,
          "name": "operator",
          "type": "address"
        },
        {
          "indexed": false,
          "name": "approved",
          "type": "bool"
        }
      ],
      "name": "ApprovalForAll",
      "type": "event"
    },
    {
      "constant": true,
      "inputs": [
        {
          "name": "owner",
          "type": "address"
        }
      ],
      "name": "balanceOf",
      "outputs": [
        {
          "name": "",
          "type": "uint256"
        }
      ],
      "payable": false,
      "stateMutability": "view",
      "type": "function"
    },
    {
      "constant": true,
      "inputs": [
        {
          "name": "tokenId",
          "type": "uint256"
        }
      ],
      "name": "ownerOf",
      "outputs": [
        {
          "name": "",
          "type": "address"
        }
      ],
      "payable": false,
      "stateMutability": "view",
      "type": "function"
    },
    {
      "constant": true,
      "inputs": [],
      "name": "baseURI",
      "outputs": [
        {
          "name": "",
          "type": "string"
        }
      ],
      "payable": false,
      "stateMutability": "view",
      "type": "function"
    },
    {
      "constant": false,
      "inputs": [
        {
          "name": "to",
          "type": "address"
        },
        {
          "name": "tokenId",
          "type": "uint256"
        }
      ],
      "name": "approve",
      "outputs": [],
      "payable": false,
      "stateMutability": "nonpayable",
      "type": "function"
    },
    {
      "constant": true,
      "inputs": [
        {
          "name": "tokenId",
          "type": "uint256"
        }
      ],
      "name": "getApproved",
      "outputs": [
        {
          "name": "",
          "type": "address"
        }
      ],
      "payable": false,
      "stateMutability": "view",
      "type": "function"
    },
    {
      "constant": false,
      "inputs": [
        {
          "name": "operator",
          "type": "address"
        },
        {
          "name": "approved",
          "type": "bool"
        }
      ],
      "name": "setApprovalForAll",
      "outputs": [],
      "payable": false,
      "stateMutability": "nonpayable",
      "type": "function"
    },
    {
      "constant": true,
      "inputs": [
        {
          "name": "owner",
          "type": "address"
        },
        {
          "name": "operator",
          "type": "address"
        }
      ],
      "name": "isApprovedForAll",
      "outputs": [
        {
          "name": "",
          "type": "bool"
        }
      ],
      "payable": false,
      "stateMutability": "view",
      "type": "function"
    },
    {
      "constant": false,
      "inputs": [
        {
          "name": "from",
          "type": "address"
        },
        {
          "name": "to",
          "type": "address"
        },
        {
          "name": "tokenId",
          "type": "uint256"
        }
      ],
      "name": "transferFrom",
      "outputs": [],
      "payable": false,
      "stateMutability": "nonpayable",
      "type": "function"
    },
    {
      "constant": true,
      "inputs": [],
      "name": "name",
      "outputs": [
        {
          "name": "",
          "type": "string"
        }
      ],
      "payable": false,
      "stateMutability": "view",
      "type": "function"
    },
    {
      "constant": true,
      "inputs": [],
      "name": "symbol",
      "outputs": [
        {
          "name": "",
          "type": "string"
        }
      ],
      "payable": false,
      "stateMutability": "view",
      "type": "function"
    },
    {
      "constant": false,
      "inputs": [
        {
          "name": "to",
          "type": "address"
        },
        {
          "name": "tokenId",
          "type": "uint256"
        }
      ],
      "name": "setMint",
      "outputs": [],
      "payable": false,
      "stateMutability": "nonpayable",
      "type": "function"
    }
  ],
  "bytecode": "0x60806040523480156200001157600080fd5b5060405162001c9638038062001c96833981018060405260608110156200003757600080fd5b8101908080516401000000008111156200005057600080fd5b828101905060208101848111156200006757600080fd5b81518560018202830111640100000000821117156200008557600080fd5b50509291906020018051640100000000811115620000a257600080fd5b82810190506020810184811115620000b957600080fd5b8151856001820283011164010000000082111715620000d757600080fd5b50509291906020018051640100000000811115620000f457600080fd5b828101905060208101848111156200010b57600080fd5b81518560018202830111640100000000821117156200012957600080fd5b505092919050505082600590805190602001906200014992919062000185565b5081600690805190602001906200016292919062000185565b5080600890805190602001906200017b92919062000185565b5050505062000234565b828054600181600116156101000203166002900490600052602060002090601f016020900481019282601f10620001c857805160ff1916838001178555620001f9565b82800160010185558215620001f9579182015b82811115620001f8578251825591602001919060010190620001db565b5b5090506200020891906200020c565b5090565b6200023191905b808211156200022d57600081600090555060010162000213565b5090565b90565b611a5280620002446000396000f3fe6080604052600436106100af576000357c0100000000000000000000000000000000000000000000000000000000900463ffffffff16806306fdde03146100b4578063081812fc14610144578063095ea7b3146101bf57806323b872dd1461021a5780636352211e146102955780636c0360eb1461031057806370a08231146103a057806395d89b4114610405578063a22cb46514610495578063e985e9c5146104f2578063fd4d43c51461057b575b600080fd5b3480156100c057600080fd5b506100c96105d6565b6040518080602001828103825283818151815260200191508051906020019080838360005b838110156101095780820151818401526020810190506100ee565b50505050905090810190601f1680156101365780820380516001836020036101000a031916815260200191505b509250505060405180910390f35b34801561015057600080fd5b5061017d6004803603602081101561016757600080fd5b8101908080359060200190929190505050610678565b604051808273ffffffffffffffffffffffffffffffffffffffff1673ffffffffffffffffffffffffffffffffffffffff16815260200191505060405180910390f35b3480156101cb57600080fd5b50610218600480360360408110156101e257600080fd5b81019080803573ffffffffffffffffffffffffffffffffffffffff16906020019092919080359060200190929190505050610758565b005b34801561022657600080fd5b506102936004803603606081101561023d57600080fd5b81019080803573ffffffffffffffffffffffffffffffffffffffff169060200190929190803573ffffffffffffffffffffffffffffffffffffffff16906020019092919080359060200190929190505050610926565b005b3480156102a157600080fd5b506102ce600480360360208110156102b857600080fd5b81019080803590602001909291905050506109e1565b604051808273ffffffffffffffffffffffffffffffffffffffff1673ffffffffffffffffffffffffffffffffffffffff16815260200191505060405180910390f35b34801561031c57600080fd5b50610325610a5c565b6040518080602001828103825283818151815260200191508051906020019080838360005b8381101561036557808201518184015260208101905061034a565b50505050905090810190601f1680156103925780820380516001836020036101000a031916815260200191505b509250505060405180910390f35b3480156103ac57600080fd5b506103ef600480360360208110156103c357600080fd5b81019080803573ffffffffffffffffffffffffffffffffffffffff169060200190929190505050610afe565b6040518082815260200191505060405180910390f35b34801561041157600080fd5b5061041a610c17565b6040518080602001828103825283818151815260200191508051906020019080838360005b8381101561045a57808201518184015260208101905061043f565b50505050905090810190601f1680156104875780820380516001836020036101000a031916815260200191505b509250505060405180910390f35b3480156104a157600080fd5b506104f0600480360360408110156104b857600080fd5b81019080803573ffffffffffffffffffffffffffffffffffffffff169060200190929190803515159060200190929190505050610cb9565b005b3480156104fe57600080fd5b506105616004803603604081101561051557600080fd5b81019080803573ffffffffffffffffffffffffffffffffffffffff169060200190929190803573ffffffffffffffffffffffffffffffffffffffff169060200190929190505050610e73565b604051808215151515815260200191505060405180910390f35b34801561058757600080fd5b506105d46004803603604081101561059e57600080fd5b81019080803573ffffffffffffffffffffffffffffffffffffffff16906020019092919080359060200190929190505050610f07565b005b606060058054600181600116156101000203166002900480601f01602080910402602001604051908101604052809291908181526020018280546001816001161561010002031660029004801561066e5780601f106106435761010080835404028352916020019161066e565b820191906000526020600020905b81548152906001019060200180831161065157829003601f168201915b5050505050905090565b600061068382610f15565b151561071d576040517f08c379a000000000000000000000000000000000000000000000000000000000815260040180806020018281038252602c8152602001807f4552433732313a20617070726f76656420717565727920666f72206e6f6e657881526020017f697374656e7420746f6b656e000000000000000000000000000000000000000081525060400191505060405180910390fd5b6003600083815260200190815260200160002060009054906101000a900473ffffffffffffffffffffffffffffffffffffffff169050919050565b6000610763826109e1565b90508073ffffffffffffffffffffffffffffffffffffffff168373ffffffffffffffffffffffffffffffffffffffff161415151561082f576040517f08c379a00000000000000000000000000000000000000000000000000000000081526004018080602001828103825260218152602001807f4552433732313a20617070726f76616c20746f2063757272656e74206f776e6581526020017f720000000000000000000000000000000000000000000000000000000000000081525060400191505060405180910390fd5b8073ffffffffffffffffffffffffffffffffffffffff1661084e610f32565b73ffffffffffffffffffffffffffffffffffffffff16148061087d575061087c81610877610f32565b610e73565b5b1515610917576040517f08c379a00000000000000000000000000000000000000000000000000000000081526004018080602001828103825260388152602001807f4552433732313a20617070726f76652063616c6c6572206973206e6f74206f7781526020017f6e6572206e6f7220617070726f76656420666f7220616c6c000000000000000081525060400191505060405180910390fd5b6109218383610f3a565b505050565b610937610931610f32565b82610ff3565b15156109d1576040517f08c379a00000000000000000000000000000000000000000000000000000000081526004018080602001828103825260318152602001807f4552433732313a207472616e736665722063616c6c6572206973206e6f74206f81526020017f776e6572206e6f7220617070726f76656400000000000000000000000000000081525060400191505060405180910390fd5b6109dc83838361112c565b505050565b6000610a5582606060405190810160405280602981526020017f4552433732313a206f776e657220717565727920666f72206e6f6e657869737481526020017f656e7420746f6b656e000000000000000000000000000000000000000000000081525060016113ec9092919063ffffffff16565b9050919050565b606060088054600181600116156101000203166002900480601f016020809104026020016040519081016040528092919081815260200182805460018160011615610100020316600290048015610af45780601f10610ac957610100808354040283529160200191610af4565b820191906000526020600020905b815481529060010190602001808311610ad757829003601f168201915b5050505050905090565b60008073ffffffffffffffffffffffffffffffffffffffff168273ffffffffffffffffffffffffffffffffffffffff1614151515610bca576040517f08c379a000000000000000000000000000000000000000000000000000000000815260040180806020018281038252602a8152602001807f4552433732313a2062616c616e636520717565727920666f7220746865207a6581526020017f726f20616464726573730000000000000000000000000000000000000000000081525060400191505060405180910390fd5b610c106000808473ffffffffffffffffffffffffffffffffffffffff1673ffffffffffffffffffffffffffffffffffffffff16815260200190815260200160002061140c565b9050919050565b606060068054600181600116156101000203166002900480601f016020809104026020016040519081016040528092919081815260200182805460018160011615610100020316600290048015610caf5780601f10610c8457610100808354040283529160200191610caf565b820191906000526020600020905b815481529060010190602001808311610c9257829003601f168201915b5050505050905090565b610cc1610f32565b73ffffffffffffffffffffffffffffffffffffffff168273ffffffffffffffffffffffffffffffffffffffff1614151515610d64576040517f08c379a00000000000000000000000000000000000000000000000000000000081526004018080602001828103825260198152602001807f4552433732313a20617070726f766520746f2063616c6c65720000000000000081525060200191505060405180910390fd5b8060046000610d71610f32565b73ffffffffffffffffffffffffffffffffffffffff1673ffffffffffffffffffffffffffffffffffffffff16815260200190815260200160002060008473ffffffffffffffffffffffffffffffffffffffff1673ffffffffffffffffffffffffffffffffffffffff16815260200190815260200160002060006101000a81548160ff0219169083151502179055508173ffffffffffffffffffffffffffffffffffffffff16610e1e610f32565b73ffffffffffffffffffffffffffffffffffffffff167f17307eab39ab6107e8899845ad3d59bd9653f200f220920489ca2b5937696c3183604051808215151515815260200191505060405180910390a35050565b6000600460008473ffffffffffffffffffffffffffffffffffffffff1673ffffffffffffffffffffffffffffffffffffffff16815260200190815260200160002060008373ffffffffffffffffffffffffffffffffffffffff1673ffffffffffffffffffffffffffffffffffffffff16815260200190815260200160002060009054906101000a900460ff16905092915050565b610f118282611421565b5050565b6000610f2b82600161160c90919063ffffffff16565b9050919050565b600033905090565b816003600083815260200190815260200160002060006101000a81548173ffffffffffffffffffffffffffffffffffffffff021916908373ffffffffffffffffffffffffffffffffffffffff160217905550808273ffffffffffffffffffffffffffffffffffffffff16610fad836109e1565b73ffffffffffffffffffffffffffffffffffffffff167f8c5be1e5ebec7d5bd14f71427d1e84f3dd0314c0f7b2291e5b200ac8c7c3b92560405160405180910390a45050565b6000610ffe82610f15565b1515611098576040517f08c379a000000000000000000000000000000000000000000000000000000000815260040180806020018281038252602c8152602001807f4552433732313a206f70657261746f7220717565727920666f72206e6f6e657881526020017f697374656e7420746f6b656e000000000000000000000000000000000000000081525060400191505060405180910390fd5b60006110a3836109e1565b90508073ffffffffffffffffffffffffffffffffffffffff168473ffffffffffffffffffffffffffffffffffffffff16148061111257508373ffffffffffffffffffffffffffffffffffffffff166110fa84610678565b73ffffffffffffffffffffffffffffffffffffffff16145b8061112357506111228185610e73565b5b91505092915050565b8273ffffffffffffffffffffffffffffffffffffffff1661114c826109e1565b73ffffffffffffffffffffffffffffffffffffffff161415156111fd576040517f08c379a00000000000000000000000000000000000000000000000000000000081526004018080602001828103825260298152602001807f4552433732313a207472616e73666572206f6620746f6b656e2074686174206981526020017f73206e6f74206f776e000000000000000000000000000000000000000000000081525060400191505060405180910390fd5b600073ffffffffffffffffffffffffffffffffffffffff168273ffffffffffffffffffffffffffffffffffffffff16141515156112c8576040517f08c379a00000000000000000000000000000000000000000000000000000000081526004018080602001828103825260248152602001807f4552433732313a207472616e7366657220746f20746865207a65726f2061646481526020017f726573730000000000000000000000000000000000000000000000000000000081525060400191505060405180910390fd5b6112d3600082610f3a565b611323816000808673ffffffffffffffffffffffffffffffffffffffff1673ffffffffffffffffffffffffffffffffffffffff16815260200190815260200160002061162690919063ffffffff16565b50611374816000808573ffffffffffffffffffffffffffffffffffffffff1673ffffffffffffffffffffffffffffffffffffffff16815260200190815260200160002061164090919063ffffffff16565b5061138b8183600161165a9092919063ffffffff16565b50808273ffffffffffffffffffffffffffffffffffffffff168473ffffffffffffffffffffffffffffffffffffffff167fddf252ad1be2c89b69c2b068fc378daa952ba7f163c4a11628f55a4df523b3ef60405160405180910390a4505050565b60006113ff84600001846001028461168f565b6001900490509392505050565b600061141a82600001611789565b9050919050565b600073ffffffffffffffffffffffffffffffffffffffff168273ffffffffffffffffffffffffffffffffffffffff16141515156114c6576040517f08c379a00000000000000000000000000000000000000000000000000000000081526004018080602001828103825260208152602001807f4552433732313a206d696e7420746f20746865207a65726f206164647265737381525060200191505060405180910390fd5b6114cf81610f15565b151515611544576040517f08c379a000000000000000000000000000000000000000000000000000000000815260040180806020018281038252601c8152602001807f4552433732313a20746f6b656e20616c7265616479206d696e7465640000000081525060200191505060405180910390fd5b611594816000808573ffffffffffffffffffffffffffffffffffffffff1673ffffffffffffffffffffffffffffffffffffffff16815260200190815260200160002061164090919063ffffffff16565b506115ab8183600161165a9092919063ffffffff16565b50808273ffffffffffffffffffffffffffffffffffffffff16600073ffffffffffffffffffffffffffffffffffffffff167fddf252ad1be2c89b69c2b068fc378daa952ba7f163c4a11628f55a4df523b3ef60405160405180910390a45050565b600061161e836000018360010261179a565b905092915050565b600061163883600001836001026117bd565b905092915050565b600061165283600001836001026118ad565b905092915050565b600061168684600001846001028473ffffffffffffffffffffffffffffffffffffffff16600102611922565b90509392505050565b600080846001016000858152602001908152602001600020549050600081141583901515611758576040517f08c379a00000000000000000000000000000000000000000000000000000000081526004018080602001828103825283818151815260200191508051906020019080838360005b8381101561171d578082015181840152602081019050611702565b50505050905090810190601f16801561174a5780820380516001836020036101000a031916815260200191505b509250505060405180910390fd5b50846000016001820381548110151561176d57fe5b9060005260206000209060020201600101549150509392505050565b600081600001805490509050919050565b600080836001016000848152602001908152602001600020541415905092915050565b6000808360010160008481526020019081526020016000205490506000811415156118a15760006001820390506000600186600001805490500390506000866000018281548110151561180c57fe5b9060005260206000200154905080876000018481548110151561182b57fe5b9060005260206000200181905550600183018760010160008381526020019081526020016000208190555086600001805480151561186557fe5b600190038181906000526020600020016000905590558660010160008781526020019081526020016000206000905560019450505050506118a7565b60009150505b92915050565b60006118b98383611a03565b151561191757826000018290806001815401808255809150509060018203906000526020600020016000909192909190915055508260000180549050836001016000848152602001908152602001600020819055506001905061191c565b600090505b92915050565b60008084600101600085815260200190815260200160002054905060008114156119cc578460000160408051908101604052808681526020018581525090806001815401808255809150509060018203906000526020600020906002020160009091929091909150600082015181600001556020820151816001015550505084600001805490508560010160008681526020019081526020016000208190555060019150506119fc565b8285600001600183038154811015156119e157fe5b90600052602060002090600202016001018190555060009150505b9392505050565b60008083600101600084815260200190815260200160002054141590509291505056fea165627a7a72305820975d97565f886a5b5447e50e207c6f7d5d88d1384d0438c121bf877166596c880029",
  "source": "// SPDX-License-Identifier: MIT\r\n\r\npragma solidity ^0.5.0;\r\n\r\nimport \"./Context.sol\";\r\nimport \"./IERC721.sol\";\r\nimport \"./EnumerableSet.sol\";\r\nimport \"./EnumerableMap.sol\";\r\n\r\n//contract ERC721 is Context, ERC165, IERC721 {\r\ncontract ERC721 is Context,  IERC721 {\r\n    using EnumerableSet for EnumerableSet.UintSet;\r\n    using EnumerableMap for EnumerableMap.UintToAddressMap;\r\n\r\n    // Mapping from holder address to their (enumerable) set of owned tokens\r\n    mapping (address => EnumerableSet.UintSet) private _holderTokens;\r\n\r\n    // Enumerable mapping from token ids to their owners\r\n    EnumerableMap.UintToAddressMap private _tokenOwners;\r\n\r\n    // Mapping from token ID to approved address\r\n    mapping (uint256 => address) private _tokenApprovals;\r\n\r\n    // Mapping from owner to operator approvals\r\n    mapping (address => mapping (address => bool)) private _operatorApprovals;\r\n    \r\n    // Token name\r\n    string private _name;\r\n\r\n    // Token symbol\r\n    string private _symbol;\r\n\r\n    // Optional mapping for token URIs\r\n    mapping (uint256 => string) private _tokenURIs;\r\n\r\n    // Base URI\r\n    string private _baseURI;\r\n\r\n    /**\r\n     * @dev Initializes the contract by setting a `name` and a `symbol` to the token collection.\r\n     * constructor mejorado para la practica DAPP. Se adiciona name_, symbol_, baseURI_\r\n     */\r\n    constructor (string memory name_, string memory symbol_, string memory baseURI_)  public{\r\n        _name = name_; //DRONES - PARCELAS\r\n        _symbol = symbol_; //DRN - PCL\r\n        _baseURI = baseURI_; //LINK DPP DRONES\r\n\r\n        // register the supported interfaces to conform to ERC721 via ERC165\r\n        //_registerInterface(type(IERC721).interfaceId);\r\n    }\r\n\r\n    /**\r\n     * @dev See {IERC721-balanceOf}.\r\n     */\r\n    //function balanceOf(address owner) public view virtual override returns (uint256) {\r\n    function balanceOf(address owner) public view   returns (uint256) {\r\n        require(owner != address(0), \"ERC721: balance query for the zero address\");\r\n        return _holderTokens[owner].length();\r\n    }\r\n\r\n    /**\r\n     * @dev See {IERC721-ownerOf}.\r\n     */\r\n     //function ownerOf(uint256 tokenId) public view virtual override returns (address) {\r\n    function ownerOf(uint256 tokenId) public view   returns (address) {\r\n        return _tokenOwners.get(tokenId, \"ERC721: owner query for nonexistent token\");\r\n    }\r\n\r\n    /**\r\n    * @dev Returns the base URI set via {_setBaseURI}. This will be\r\n    * automatically added as a prefix in {tokenURI} to each token's URI, or\r\n    * to the token ID if no specific URI is set for that token ID.\r\n    */\r\n    // function baseURI() public view virtual returns (string memory) {\r\n    function baseURI() public view  returns (string memory) {\r\n        return _baseURI;\r\n    }\r\n\r\n    /**\r\n     * @dev See {IERC721-approve}.\r\n     */\r\n     //el operator aprueba asignacion ID del metodo  transferFrom - #3, y listo. ya se pueden utlizar todos los metodos de consulta\r\n     //function approve(address to, uint256 tokenId) public virtual override {\r\n    function approve(address to, uint256 tokenId) public   {\r\n        address owner = ERC721.ownerOf(tokenId);\r\n        require(to != owner, \"ERC721: approval to current owner\");\r\n\r\n        require(_msgSender() == owner || ERC721.isApprovedForAll(owner, _msgSender()),\r\n            \"ERC721: approve caller is not owner nor approved for all\"\r\n        );\r\n\r\n        _approve(to, tokenId);\r\n    }\r\n\r\n    /**\r\n     * @dev See {IERC721-getApproved}.\r\n     */\r\n     //function getApproved(uint256 tokenId) public view virtual override returns (address) {\r\n    function getApproved(uint256 tokenId) public view   returns (address) {\r\n        require(_exists(tokenId), \"ERC721: approved query for nonexistent token\");\r\n\r\n        return _tokenApprovals[tokenId];\r\n    }\r\n\r\n    /**\r\n     * @dev See {IERC721-setApprovalForAll}.\r\n     */\r\n     //el owner aprueba todas las asignaciones del metodo  transferFrom - #3\r\n     // function setApprovalForAll(address operator, bool approved) public virtual override {\r\n    function setApprovalForAll(address operator, bool approved) public   {\r\n        require(operator != _msgSender(), \"ERC721: approve to caller\");\r\n\r\n        _operatorApprovals[_msgSender()][operator] = approved;\r\n        emit ApprovalForAll(_msgSender(), operator, approved);\r\n    }\r\n\r\n    /**\r\n     * @dev See {IERC721-isApprovedForAll}.\r\n     */\r\n     //function isApprovedForAll(address owner, address operator) public view virtual override returns (bool) {\r\n    function isApprovedForAll(address owner, address operator) public view   returns (bool) {\r\n        return _operatorApprovals[owner][operator];\r\n    }\r\n\r\n    /**\r\n     * @dev See {IERC721-transferFrom}.\r\n     */\r\n     //el owner asigna ID al operator (address diferente) - #2\r\n     //function transferFrom(address from, address to, uint256 tokenId) public virtual override {\r\n    function transferFrom(address from, address to, uint256 tokenId) public   {\r\n        //solhint-disable-next-line max-line-length\r\n        require(_isApprovedOrOwner(_msgSender(), tokenId), \"ERC721: transfer caller is not owner nor approved\");\r\n\r\n        _transfer(from, to, tokenId);\r\n    }\r\n\r\n    /**\r\n     * @dev Returns whether `tokenId` exists.\r\n     *\r\n     * Tokens can be managed by their owner or approved accounts via {approve} or {setApprovalForAll}.\r\n     *\r\n     * Tokens start existing when they are minted (`_mint`),\r\n     * and stop existing when they are burned (`_burn`).\r\n     */\r\n    function _exists(uint256 tokenId) internal view  returns (bool) {\r\n        return _tokenOwners.contains(tokenId);\r\n    }\r\n\r\n    /**\r\n     * @dev Returns whether `spender` is allowed to manage `tokenId`.\r\n     *\r\n     * Requirements:\r\n     *\r\n     * - `tokenId` must exist.\r\n     */\r\n     //function _isApprovedOrOwner(address spender, uint256 tokenId) internal view virtual returns (bool) {\r\n    function _isApprovedOrOwner(address spender, uint256 tokenId) internal view  returns (bool) {\r\n        require(_exists(tokenId), \"ERC721: operator query for nonexistent token\");\r\n        address owner = ERC721.ownerOf(tokenId);\r\n        return (spender == owner || getApproved(tokenId) == spender || ERC721.isApprovedForAll(owner, spender));\r\n    }\r\n\r\n    /**\r\n     * @dev Mints `tokenId` and transfers it to `to`.\r\n     *\r\n     * WARNING: Usage of this method is discouraged, use {_safeMint} whenever possible\r\n     *\r\n     * Requirements:\r\n     *\r\n     * - `tokenId` must not exist.\r\n     * - `to` cannot be the zero address.\r\n     *\r\n     * Emits a {Transfer} event.\r\n     */\r\n     //function _mint(address to, uint256 tokenId) internal virtual {\r\n    function _mint(address to, uint256 tokenId) internal  {\r\n        require(to != address(0), \"ERC721: mint to the zero address\");\r\n        require(!_exists(tokenId), \"ERC721: token already minted\");\r\n\r\n        //_beforeTokenTransfer(address(0), to, tokenId);\r\n\r\n        _holderTokens[to].add(tokenId);\r\n\r\n        _tokenOwners.set(tokenId, to);\r\n\r\n        emit Transfer(address(0), to, tokenId);\r\n    }\r\n\r\n    /**\r\n     * @dev Transfers `tokenId` from `from` to `to`.\r\n     *  As opposed to {transferFrom}, this imposes no restrictions on msg.sender.\r\n     *\r\n     * Requirements:\r\n     *\r\n     * - `to` cannot be the zero address.\r\n     * - `tokenId` token must be owned by `from`.\r\n     *\r\n     * Emits a {Transfer} event.\r\n     */\r\n     //function _transfer(address from, address to, uint256 tokenId) internal virtual {\r\n    function _transfer(address from, address to, uint256 tokenId) internal  {\r\n        require(ERC721.ownerOf(tokenId) == from, \"ERC721: transfer of token that is not own\"); // internal owner\r\n        require(to != address(0), \"ERC721: transfer to the zero address\");\r\n\r\n        // Clear approvals from the previous owner\r\n        _approve(address(0), tokenId);\r\n\r\n        _holderTokens[from].remove(tokenId);\r\n        _holderTokens[to].add(tokenId);\r\n\r\n        _tokenOwners.set(tokenId, to);\r\n\r\n        emit Transfer(from, to, tokenId);\r\n    }\r\n\r\n    /**\r\n     * @dev Internal function to set the base URI for all token IDs. It is\r\n     * automatically added as a prefix to the value returned in {tokenURI},\r\n     * or to the token ID if {tokenURI} is empty.\r\n     */\r\n     //function _setBaseURI(string memory baseURI_) internal virtual {\r\n    function _setBaseURI(string memory baseURI_) internal  {\r\n        _baseURI = baseURI_;\r\n    }\r\n\r\n    /*\r\n     * @dev Internal function to invoke {IERC721Receiver-onERC721Received} on a target address.\r\n     * The call is not executed if the target address is not a contract.\r\n     *\r\n     * @param from address representing the previous owner of the given token ID\r\n     * @param to target address that will receive the tokens\r\n     * @param tokenId uint256 ID of the token to be transferred\r\n     * @param _data bytes optional data to send along with the call\r\n     * @return bool whether the call correctly returned the expected magic value\r\n     */\r\n    \r\n    function _approve(address to, uint256 tokenId) private {\r\n        _tokenApprovals[tokenId] = to;\r\n        emit Approval(ERC721.ownerOf(tokenId), to, tokenId); // internal owner\r\n    }\r\n\r\n     /**\r\n    * funciones propias DAPP\r\n    */\r\n    //function name() public view virtual returns (string memory) {\r\n    function name() public view  returns (string memory) {\r\n        return _name;\r\n    }\r\n    //function symbol() public view virtual returns (string memory) {\r\n     function symbol() public view  returns (string memory) {\r\n        return _symbol;\r\n    }\r\n    //el ingreso ID unico para el owner del contrato - #1\r\n    //function setMint(address to, uint256 tokenId) public virtual {\r\n    function setMint(address to, uint256 tokenId) public  {\r\n       _mint(to, tokenId);\r\n    }\r\n}",
  "sourcePath": "C:/Users/Admin/Documents/Tech/UNIR/Blockchain/TFE/TEST/contracts/ERC721.sol",
  "compiler": {
    "name": "solc",
    "version": "0.5.0+commit.1d4f565a.Emscripten.clang"
  },
  "schemaVersion": "3.3.4",
  "updatedAt": "2021-03-20T08:40:38.004Z",
  "devdoc": {
    "methods": {
      "approve(address,uint256)": {
        "details": "See {IERC721-approve}.\r"
      },
      "balanceOf(address)": {
        "details": "See {IERC721-balanceOf}.\r"
      },
      "baseURI()": {
        "details": "Returns the base URI set via {_setBaseURI}. This will be\r automatically added as a prefix in {tokenURI} to each token's URI, or\r to the token ID if no specific URI is set for that token ID.\r"
      },
      "constructor": {
        "details": "Initializes the contract by setting a `name` and a `symbol` to the token collection.\r constructor mejorado para la practica DAPP. Se adiciona name_, symbol_, baseURI_\r"
      },
      "getApproved(uint256)": {
        "details": "See {IERC721-getApproved}.\r"
      },
      "isApprovedForAll(address,address)": {
        "details": "See {IERC721-isApprovedForAll}.\r"
      },
      "ownerOf(uint256)": {
        "details": "See {IERC721-ownerOf}.\r"
      },
      "setApprovalForAll(address,bool)": {
        "details": "See {IERC721-setApprovalForAll}.\r"
      },
      "transferFrom(address,address,uint256)": {
        "details": "See {IERC721-transferFrom}.\r"
      }
    }
  },
  "userdoc": {
    "methods": {
      "name()": {
        "notice": "funciones propias DAPP\r"
      }
    }
  }
}